:020000040800F2
:10000000180800208901000841100008B10E0008FE
:100010003D1000086B040008911E0008000000005D
:10002000000000000000000000000000C1120008F5
:100030009508000800000000B51000085D140008D5
:10004000A3010008A3010008A3010008A301000800
:10005000A3010008A3010008A3010008A3010008F0
:10006000A3010008A3010008A3010008A3010008E0
:10007000A3010008A3010008A3010008A3010008D0
:10008000A3010008A3010008A3010008A3010008C0
:10009000A3010008A3010008A301000899080008B3
:1000A000A3010008BD150008A3010008A301000872
:1000B00019180008A3010008A3010008A301000803
:1000C000A3010008A3010008A3010008A301000880
:1000D000A3010008A30100088F1E0008A301000867
:1000E000A3010008A3010008A301000800F002F822
:1000F00000F03AF80AA090E8000C82448344AAF188
:100100000107DA4501D100F02FF8AFF2090EBAE885
:100110000F0013F0010F18BFFB1A43F0010318473B
:10012000901E0000B01E0000103A24BF78C878C1AD
:10013000FAD8520724BF30C830C144BF04680C60ED
:10014000704700000023002400250026103A28BF35
:1001500078C1FBD8520728BF30C148BF0B60704739
:100160001FB51FBD10B510BD00F031F81146FFF7E7
:10017000F7FF01F0EFFE00F04FF803B4FFF7F2FFD6
:1001800003BC00F057F800000948804709480047C1
:10019000FEE7FEE7FEE7FEE7FEE7FEE7FEE7FEE737
:1001A000FEE7FEE704480549054A064B7047000094
:1001B00061140008ED000008180200201808002053
:1001C00018040020180400207047704770477546D7
:1001D00000F02CF8AE4605006946534620F00700B3
:1001E000854618B020B5FFF7DDFFBDE820404FF091
:1001F00000064FF000074FF000084FF0000B21F011
:100200000701AC46ACE8C009ACE8C009ACE8C009DD
:10021000ACE8C0098D46704710B50446AFF30080C6
:100220002046BDE81040FFF7A8BF00000048704717
:10023000B401002001491820ABBEFEE726000200F1
:10024000704721B1826842F00102826003E0826857
:1002500022F001028260704700B585B001214FF4A1
:10026000017000F059FF0020009001208DF804007B
:1002700000208DF805004FF46020029000200390CC
:1002800002208DF8100069461E4800F06FF800212A
:100290001C4800F04FF803211A4800F0D0F8002362
:1002A00001221146174800F089F800230222092193
:1002B000144800F083F8002303220821114800F0BD
:1002C0007DF801210F4800F01FF801210D48FFF7CC
:1002D000B8FF0C4800F0BFF800BF0A4800F03CF837
:1002E0000028FAD1074800F0BBF800BF054800F02D
:1002F00029F80028FAD10121024800F010F805B0D1
:1003000000BD00000024014021B1826842F48072E7
:10031000826003E0826822F480728260704721B1BB
:10032000826842F40042826003E0826822F4004264
:10033000826070470A460021816821F4E041114340
:1003400081607047014600208A6802F004020AB109
:10035000012000E000207047014600208A6802F07A
:1003600008020AB1012000E00020704730B50246C3
:100370000020002350680F4C20400D790C6844EA9F
:1003800005242043506090680B4C2040D1E9025472
:100390002C434D7944EA450420439060D06A20F410
:1003A00070000C7C641EE4B2234340EA0350D06228
:1003B00030BD0000FFFEF0FFFDF7F1FFF0B5044691
:1003C0001546002000220026092911DDE068A1F170
:1003D0000A0707EB470C072707FA0CF29043A1F135
:1003E0000A0707EB470703FA07F21043E0600CE047
:1003F000206901EB410C072707FA0CF2904301EB4F
:10040000410703FA07F210432061A06BC0F30156C5
:10041000EF1C06F1010CA7EB0C0707EB870C1F275D
:1004200007FA0CF29043EF1C06F1010CA7EB0C0746
:1004300007EB870701FA07F21043A063F0BD10B580
:100440000A4600210023816B21F44011531E41EA2A
:100450000351816310BD816841F0080181607047DC
:10046000816841F004018160704700BFFEE7000031
:1004700000B56B480078012855D16A4800780128FA
:100480000ED1694800786949098848437F2190FB6B
:10049000F1F06749098808441538664908600DE09D
:1004A000614800786249098848437F2190FBF1F058
:1004B0005F490988081A15385E4908605D48006878
:1004C0005D490968884217DD5A4800885A490988F9
:1004D000401A5A4908805A480078012806D15948DC
:1004E0000088002802DD0120574908700020574984
:1004F00008705749087016E04F4800884D49098830
:10050000401A4E4908804E48007830B94D4800885E
:10051000002802DD01204C49087001204B49087079
:1005200000204C4908704C480078012809D13C480B
:10053000007830B9462041490880012040490870C0
:1005400003E0424800783E4908703C48008809288A
:100550001CDD01204149087038480088642804DD0A
:1005600040F265403E49088013E0344800882A285C
:1005700008DD32480088C0EB0010A0F5D77038497C
:10058000088006E0C8203649088002E0002034498F
:1005900008802D480078012809D1002030490880C2
:1005A00028480088642802DA02202C490870234871
:1005B00000880A2811DB2948007802280DD0294834
:1005C000007850B123480078012806D020480078F0
:1005D000012802D02048007870B90020194908800D
:1005E0001949087000F0E2FE00F008FF00F042F840
:1005F00002201A4908700EE01B48406B1B49496BEA
:10060000884204DA1848808E0E49088003E01748B3
:10061000808E0C4908800B4800881549088000BD71
:100620003B00002039000020240000202E00002084
:100630002C00002028000020340000203000002082
:100640003800002020000020510000205C00002025
:100650005B0000205A0000203A0000201C0000200F
:100660005200002054000020C00000208000002024
:100670001800002001200649086048600020086238
:1006800048633C2008634FF4FA70C862704700006A
:10069000C000002021B1026842F00102026004E0C3
:1006A00002684FF6FE731A400260704700B58BB0C7
:1006B0000121084600F000FD114800F027F811481C
:1006C0000090114801900020029002200390002029
:1006D0000490802005904000069080000790202024
:1006E00008900002099000200A906946044800F032
:1006F000B3F801210248FFF7CDFF0BB000BD0000A9
:10070000080002404C2401406400002001684FF6BC
:10071000FE72114001600021016041608160C16092
:100720004B49884208D14A490839496841F00F01CC
:10073000474A083A51608AE045491431884208D155
:1007400043490839496841F0F001414A083A51608B
:100750007DE03F492831884208D13D490839496840
:1007600041F470613A4A083A516070E038493C31CE
:10077000884208D136490839496841F47041344A01
:10078000083A516063E032495031884208D130491B
:100790000839496841F470212D4A083A516056E001
:1007A0002B496431884208D129490839496841F404
:1007B0007001274A083A516049E02549783188425A
:1007C00008D123490839496841F07061204A083A44
:1007D00051603CE01F49884206D1011F096841F081
:1007E0000F01021F116032E01A491431884208D10A
:1007F0001849091F096841F0F001164A121F1160DB
:1008000025E014492831884208D11249091F096896
:1008100041F470610F4A121F116018E00D493C311C
:10082000884208D10B49091F096841F47041094AFF
:10083000121F11600BE007495031884207D105496A
:10084000091F096841F47021024A121F11607047A4
:10085000080002400804024010B50022026847F672
:10086000F0739A430C6A8B6823430C6923434C69E9
:1008700023438C692343CC6923434C6A23438C6A0A
:1008800023431A430260CB6843600B6883604B6864
:10089000C36010BD7047000010B52E4800F0D2F9BB
:1008A0002D4908800846008800F4E070088008465A
:1008B0000088801108800846007800F0070027496A
:1008C000274A1278895C884205D126480068401C76
:1008D000244908600EE02048007800F00700224913
:1008E0001F4A1278895C884204D11E480068401E65
:1008F0001C4908601848007800F007001849087083
:100900001A480088401C1949088019480088401C72
:100910001749088000F01EFA16480068401C154967
:100920000860402000F02EF810B1402000F024F8BC
:10093000802000F027F810B1802000F01DF84FF45F
:10094000807000F01FF818B14FF4807000F014F8B8
:1009500010BD0000000C014002000020A01F000894
:10096000500000204C000020A81F00084400002078
:100970004600002004000020014908607047000084
:1009800014040140014600200022074B1B6803EAC3
:100990000102054B14331B680B4013B10AB101204F
:1009A00000E00020704700000004014000212349BE
:1009B0008279002A3AD00A46126803689A430B46A5
:1009C0001A600A1D126803689A430B1D1A600279A7
:1009D00011440A6803681A430A60184A0832126808
:1009E00003689A43154B08331A601A1D126803688E
:1009F0009A43124B0C331A604279102A0ED11A1FF7
:100A0000126803681A430D4B08331A601A1D1268E6
:100A100003681A43094B0C331A600DE00749427909
:100A200011440A6803681A430A6005E00279114418
:100A30000A6803689A430A60704700000004014096
:100A40000549096821F01001034A1160114609683F
:100A500001431160704700000020024030B50022C1
:100A60008B071C0F0F2303FA04F20B4B8C1053F867
:100A700024309343084C8D1044F8253023468C10C5
:100A800053F824308C07240F00FA04F42343024C5B
:100A90008D1044F8253030BD080001402DE9F041AB
:100AA000024600250026002000230024002791F89C
:100AB00003C00CF00F0591F803C00CF0100CBCF152
:100AC000000F03D091F802C04CEA050591F800C070
:100AD000BCF1000F31D0146800202BE04FF0010C66
:100AE0000CFA00F3B1F800C00CEA03069E4220D1D4
:100AF00083004FF00F0C0CFA03F7BC4305FA03FC1C
:100B00004CEA040491F803C0BCF1280F06D14FF061
:100B1000010C0CFA00FCC2F814C00AE091F803C002
:100B2000BCF1480F05D14FF0010C0CFA00FCC2F8E3
:100B300010C0401C0828D1D31460B1F800C0BCF12B
:100B4000FF0F34DD546800202EE000F1080C4FF058
:100B5000010808FA0CF3B1F800C00CEA03069E4243
:100B600021D183004FF00F0C0CFA03F7BC4305FAB8
:100B700003FC4CEA040491F803C0BCF1280F05D132
:100B800000F1080C08FA0CF8C2F8148091F803C0C0
:100B9000BCF1480F07D100F1080C4FF0010808FA2A
:100BA0000CF8C2F81080401C0828CED35460BDE871
:100BB000F0810000F0B50A46002300240021002542
:100BC00000F00046B6F1004F02D11D4EF16901E080
:100BD0001B4E7168C0F3034583B200F44016B6F5AE
:100BE000401F08D121F07061154E766826F07066BE
:100BF000134F7E6012E000F48016B6F5801F06D118
:100C0000032606FA05F4A14341F0706106E0460DA3
:100C1000360103FA06F6B14341F0706122B1460D88
:100C2000360103FA06F6314300F00046B6F1004FF4
:100C300002D1034EF16101E0014E7160F0BD000090
:100C4000000001400146886880B2704741617047EA
:100C50000161704710B508211948FFF7F9FF052019
:100C600001F036F9002427E04FF400611548FFF742
:100C7000EDFF00BF0221144800F014FB0028F9D05A
:100C8000124830F81410104800F018FB00BF012182
:100C90000D4800F007FB0028F9D00B4800F00BFBD3
:100CA0000B4921F814004FF400610648FFF7D0FF0C
:100CB000012001F00DF9641C082CD5DB10BD0000EB
:100CC000000C01400008014000300140901F000866
:100CD0006E0000201FB50121082000F01DFA4FF41E
:100CE000E070ADF80C0004208DF80F0003208DF8A3
:100CF0000E0003A91648FFF7D1FE06210120FFF7D9
:100D0000ADFE07210120FFF7A9FE08210120FFF712
:100D1000A5FE4FF4E070019000208DF8080010202F
:100D20008DF8090001208DF80A0001A8FFF73EFEAA
:100D300017208DF8000000208DF8010003208DF8A9
:100D4000020001208DF80300684600F07BF91FBD0A
:100D5000000C014010B500244F480078012805D14F
:100D60004E48007880F00700C4B201E04B48047898
:100D700001204B490880072C73D2DFE804F0890476
:100D8000301A5C73460000204649088046480088B7
:100D9000091F088000204349091D08804FF42041A5
:100DA0004248FFF755FF4FF480414048FFF74EFFA0
:100DB0006FE000203B4908803B480088091F0880FD
:100DC00000203849091D08804FF4C0413748FFF71B
:100DD0003FFF4FF400413548FFF738FF59E000204E
:100DE0003049091F088030480088091D088000200C
:100DF000091D08804FF4C0412C48FFF729FF4FF42C
:100E000000412A48FFF722FF43E000202549091F3F
:100E1000088025480088091D08800020091D0880D9
:100E20004FF440412148FFF713FF4FF400511F4892
:100E3000FFF70CFF2DE000201A4908801A480088AF
:100E4000091D088000201749091F08804FF4404100
:100E50001648FFF7FDFE4FF400511448FFF7F6FE69
:100E600017E015E000200F4908800F480088091D91
:100E7000088000200B49091F08804FF420410B48CF
:100E8000FFF7E6FE4FF480410848FFF7DFFE00E081
:100E900000BF00BF10BD000038000020020000208D
:100EA00016000020382C014018000020000C0140E2
:100EB00000BFFEE74CF6CC400149086070470000D7
:100EC0000030004070B505460C4645F2555000F024
:100ED0001FF8284600F010F8204600F013F800F044
:100EE00003F8FFF7E7FF70BD4AF6AA200149086042
:100EF0007047000000300040014948607047000022
:100F00000030004001498860704700000030004018
:100F100001490860704700000030004008B5012119
:100F2000092000F0F9F80121082000F0F5F8082068
:100F3000ADF8000010208DF8030003208DF80200AA
:100F400069463B48FFF7AAFD0121082000F0E4F8BC
:100F50004FF48050ADF8000048208DF803000320C6
:100F60008DF8020069463248FFF798FD01210820FC
:100F700000F0D2F84FF40060ADF8000048208DF882
:100F8000030003208DF8020069462948FFF786FD1B
:100F90000121082000F0C0F84FF48060ADF8000097
:100FA00048208DF8030003208DF802006946204890
:100FB000FFF774FD0121042000F0AEF81020ADF819
:100FC00000008DF8030003208DF8020069461948DF
:100FD000FFF764FD10211748FFF73AFE01210420B6
:100FE00000F09AF84FF40060ADF8000010208DF882
:100FF000030003208DF8020069460E48FFF74EFDFE
:101000004FF400610B48FFF723FE01210A48FFF768
:10101000D1FD4FF40070ADF8000004208DF80300FE
:1010200003208DF8020069460148FFF737FD08BD2F
:10103000000C0140000801400002300000BFFEE744
:101040007047000070B5002100230F22C47804B35C
:10105000154C246804F4E064C4F5E064210AC1F18D
:101060000403CA40447804FA03F18478144021430D
:1010700009010E4C0678A155047804F01F050124DF
:10108000AC4005786D11AD0005F1E025C5F80041D3
:1010900009E0047804F01F050124AC40044D0678F3
:1010A000761145F8264070BD0CED00E000E400E04C
:1010B00080E100E07047000029B1064A526902430E
:1010C000044B5A6104E0034A52698243014B5A615E
:1010D000704700000010024029B1064AD26902435D
:1010E000044BDA6104E0034AD2698243014BDA61BE
:1010F000704700000010024029B1064A12690243FD
:10110000044B1A6104E0034A12698243014B1A61DD
:10111000704700000010024029B1064A926902435C
:10112000044B9A6104E0034A92698243014B9A613D
:10113000704700000010024029B1064AD2680243FD
:10114000044BDA6004E0034AD2688243014BDA6060
:10115000704700000010024010B5002400F052F863
:10116000012000F093F82548406820F0F000234962
:1011700048600846406820F460504860084644686B
:1011800024F4E06444F4806444601D48006800F086
:1011900038001B4908600846006840F002000860FB
:1011A0001020FFF74DFC1648006820F0100014498D
:1011B00008600846006840F0100008600F48446866
:1011C00024F47C1444F462144460012000F064F8B8
:1011D00000BF392000F03CF80028FAD007484468E6
:1011E00024F0030444F00204446000BF0348406854
:1011F00000F00C000828F9D110BD000000100240DA
:10120000002002400F48006840F001000D490860CE
:10121000084640680C4908400A494860084600688A
:101220000A490840074908600846006820F4802001
:1012300008600846406820F4FE0048604FF41F0034
:1012400088607047001002400000FFF8FFFFF6FEC4
:1012500010B501460022002300204A11012A02D1C4
:10126000094C236806E0022A02D1074C236A01E0F8
:10127000054C636A01F01F02012494401C400CB12C
:10128000012000E0002010BD00100240014908606C
:1012900070470000000042420149086670470000A4
:1012A000000042420246002013890B400BB101208E
:1012B00000E00020704701468889704781817047AF
:1012C000704710B500F002F810BD00000CB500200A
:1012D000019000903348006840F480303149086044
:1012E00000BF3048006800F4003000900198401CB6
:1012F0000190009818B90198B0F5A06FF1D1294874
:10130000006800F4003010B10120009001E00020DE
:1013100000900098012843D12348006840F0100055
:10132000214908600846006820F00300086008466C
:10133000006840F0020008601A4840681949486097
:101340000846406848600846406840F4806048604D
:101350000846406820F47C1048600846406840F425
:10136000E81048600846006840F08070086000BFE0
:101370000C48006800F000700028F9D00948406867
:1013800020F00300074948600846406840F002002A
:10139000486000BF0348406800F00C000828F9D1FD
:1013A0000CBD000000100240002002400120064950
:1013B000086048600020086248633C2008634FF4DE
:1013C000FA70C862704700008000002041882A2916
:1013D00001DB002141800288816811444288064B6C
:1013E00053F82220891A81600188428843F822102C
:1013F0004188491C4180704700010020002000BF47
:1014000005E04FF4BA61094A42F82010401C2A282E
:10141000F7DB4FF22441064A91600021518040F2EF
:10142000EE21118042F22831D18070470001002066
:10143000A8010020042808D14FF0E021096941F0FB
:1014400004014FF0E022116107E04FF0E02109694B
:1014500021F004014FF0E022116170477047000055
:1014600010B51348006840F00100114908600846B3
:101470004068104908400E494860084600680E4917
:1014800008400B4908600846006820F48020086086
:101490000846406820F4FE0048604FF41F00886052
:1014A000FFF70FFF4FF000600449086010BD000017
:1014B000001002400000FFF8FFFFF6FE08ED00E01C
:1014C00000B589B00121C802FFF726FE3A4800F0B6
:1014D0000FFA06A800F0D2FC0020ADF8180020207A
:1014E000ADF81A004FF4FA60ADF81C004FF48070AC
:1014F000ADF81E0000208DF8200006A92E4800F04F
:101500006BFC20202C49091D088002A800F059FC22
:101510006020ADF808000120ADF80A0040F2055047
:10152000ADF80E000020ADF8100002A9224800F02E
:10153000EDFA02A9204800F03FFB02A91E4800F086
:101540009BFB02A91C4800F0F1FB08211A4800F09F
:1015500029FB0821184800F081FB0821164800F0FB
:10156000DBFB0821144800F01FFC19208DF8040053
:1015700001208DF8050002208DF8060001208DF86D
:10158000070001A8FFF75EFD012211460A4800F09E
:10159000B4FA0121084800F07DF90021064800F066
:1015A00097F90121044800F081F90121024800F077
:1015B00083F909B000BD0000002C014010B50024E3
:1015C00001217F4800F088FA00287DD07D48C0685E
:1015D00080F400507B49C8600121794800F069F926
:1015E00077483030008840B9754824300088642836
:1015F00003DD01207249303108807348008842F2CF
:101600001071884204DA70480088401C6E490880D6
:101610006E480078C0B96C4800880A2814DD6C4810
:1016200000686C4908800120684908706948008892
:10163000B0F5267F04DC67480088B0F5E87F03DA60
:101640004FF40D7063490880614800686249088062
:10165000084600885F490988884207DD5E4800889F
:101660005C490988401A5C49088002E000205A4918
:1016700008805A4A128802EB4201CA1701EB9272A3
:101680009210554B1888C31700EB937302EBA3021B
:10169000534B1A80184600885049088051480088EA
:1016A0004FF6E851884204DA4E480088401C4D4904
:1016B00008804D4800884FF6E851884206DA4A48CB
:1016C0000088401C484900E078E0088047480088CE
:1016D0004FF6E851884204DA44480088401C4349E8
:1016E000088043480078012806D000203D49088042
:1016F0003D4908803D4908803E4800783E490988B8
:10170000884225D03B4800783B4909784840C4B21C
:1017100004F0010010B100203249088004F00200FA
:1017200010B100203049088004F0040010B10020FE
:101730002E490880304800782E49087022480088D9
:101740002E4908800846FFF741FE00201E49088008
:101750002448008847F23051884207DC224800883C
:10176000884203DC21480088884221DD1C4800882B
:10177000E6281DDD1E480078012819D100201949EE
:10178000088019490880194908801D48007818B94F
:1017900001201C4908700BE001201B4908701B4800
:1017A000007828B9012019490870002018490860FC
:1017B0001748006817490860FEF75AFE10BD000080
:1017C000002C0140001001404A000020540000207D
:1017D0003C24014056000020580000200800002052
:1017E000620000200A0000200C0000200E000020F3
:1017F0001C0000201000002002000020A801002092
:10180000380000205A0000205B0000203B00002030
:101810004C0000203400002010B50121880700F0A2
:101820005BF930B10121880700F043F8012001493C
:10183000087010BD000000207FB505460C46012150
:101840000846FFF749FCADF80850ADF80440002009
:10185000ADF80A00ADF8060001A94FF0804000F095
:10186000BBFA01221146900700F047F91C208DF8C1
:10187000000000208DF8010003208DF802000120F7
:101880008DF803006846FFF7DDFB0121880700F0B3
:1018900013F87FBD21B1028842F08002028004E08B
:1018A00002884FF67F731A4002807047CA43028253
:1018B0007047CA430282704721B1028842F0010298
:1018C000028004E002884FF6FE731A4002807047DF
:1018D00031B1B0F8442042F40042A0F8442005E0C1
:1018E000B0F84420C2F30E02A0F844207047000074
:1018F00010B504466848844208D10121C014FFF79E
:101900001BFC0021E014FFF717FCC4E0B4F1804F8A
:1019100008D101210846FFF7EFFB00210120FFF766
:10192000EBFBB8E05D48844208D101210220FFF7BB
:10193000E3FB00210220FFF7DFFBACE058488442C4
:1019400008D101210420FFF7D7FB00210420FFF775
:10195000D3FBA0E05348844208D101210820FFF7BF
:10196000CBFB00210820FFF7C7FB94E04E488442E0
:1019700008D101211020FFF7BFFB00211020FFF745
:10198000BBFB88E04948844208D101212020FFF7B1
:10199000B3FB00212020FFF7AFFB7CE044488442EA
:1019A00008D101214014FFF7C7FB00216014FFF7A5
:1019B000C3FB70E03F48844209D10121C804FFF70E
:1019C000BBFB00214FF40020FFF7B6FB63E03A4871
:1019D000844209D101210805FFF7AEFB00214FF435
:1019E0008010FFF7A9FB56E03448844209D1012159
:1019F0004805FFF7A1FB00214FF40010FFF79CFB07
:101A000049E02F48844208D101214020FFF774FBB0
:101A100000214020FFF770FB3DE02A48844208D1B6
:101A200001218020FFF768FB00218020FFF764FB85
:101A300031E02548844208D101218015FFF75CFB85
:101A40000021A015FFF758FB25E02048844209D16A
:101A500001210804FFF770FB00214FF48030FFF7ED
:101A60006BFB18E01A48844209D101214804FFF7B2
:101A700063FB00214FF40030FFF75EFB0BE01548DD
:101A8000844208D101218804FFF756FB00214FF45E
:101A90008020FFF751FB10BD002C014000040040E6
:101AA00000080040000C00400010004000140040FE
:101AB00000340140004C01400050014000540140FE
:101AC00000180040001C0040002000400040014081
:101AD000004401400048014030B502460020002388
:101AE0000024158A05EA0103958905EA010413B16A
:101AF0000CB1012000E0002030BD1AB183890B43F6
:101B0000838102E083898B438381704770B5002411
:101B100000220023058C4FF6FE7635400584028CAA
:101B20008388048B4FF68F752C40B51E2C400D8892
:101B30002C43751E2A400D892A434D882A43144D93
:101B4000A8420BD0134DA84208D0134DA84205D08F
:101B5000124DA84202D0124DA84213D14FF6F7758C
:101B60002A404D892A434FF6FB752A408D882A4327
:101B70004FF6FF652B404FF6FF552B408D892B43C9
:101B8000CD892B4383800483CD888586028470BDF4
:101B9000002C01400034014000400140004401405D
:101BA000004801400A460021018B4FF6F7731940A7
:101BB000114301837047000070B500240022002308
:101BC000058C4FF6EF7635400584028C8388048BB4
:101BD00048F6FF752C404FF6FF452C400D884FF618
:101BE000FF7606EA05252C434FF6DF752A400D895E
:101BF00006EA05152A434D8806EA05152A43154DC0
:101C0000A84202D0144DA8421DD14FF67F752A403C
:101C10004D894FF6FF7606EA05152A434FF6BF7544
:101C20002A408D8806EA05152A434FF6FF352B40DA
:101C30004FF2FF752B408D8906EA85052B43CD8930
:101C400006EA85052B4383800483CD8805870284BB
:101C500070BD0000002C0140003401400A46002104
:101C6000018B4FF2FF7319404FF6FF7303EA022313
:101C7000194301837047000070B50024002200233F
:101C8000058C4FF6FF6635400584028C8388848B73
:101C90004FF68F752C404FF6FC752C400D882C4369
:101CA0004FF6FF552A400D894FF6FF7606EA0525C7
:101CB0002A434D8806EA05252A43154DA84202D03D
:101CC000144DA8421DD14FF2FF752A404D894FF6A1
:101CD000FF7606EA05252A434FF6FF352A408D8810
:101CE00006EA05252A434EF6FF752B404DF6FF7593
:101CF0002B408D8906EA05152B43CD8906EA05158B
:101D00002B4383808483CD888587028470BD000047
:101D1000002C0140003401400A460021818B4FF61F
:101D2000F7731940114381837047000070B500229A
:101D300000230024058C4EF6FF7635400584038C85
:101D40008488828B48F6FF752A404FF6FF452A406B
:101D50000D884FF6FF7606EA05252A434DF6FF75F6
:101D60002B400D8906EA05352B434D8806EA0535DB
:101D70002B430B4DA84202D00A4DA84208D14BF686
:101D8000FF752C408D894FF6FF7606EA85152C43AA
:101D900084808283CD88A0F84050038470BD000009
:101DA000002C0140003401400A460021818B4FF293
:101DB000FF7319404FF6FF7303EA0223194381832F
:101DC00070470021018041808180C1800181418173
:101DD0008181C18170470000002202881D4B98421A
:101DE0000ED01D4B98420BD0B0F1804F08D01B4B4A
:101DF000984205D01A4B984202D01A4B984204D10F
:101E00004FF68F731A404B881A43174B984207D0EE
:101E1000164B984204D04FF6FF431A40CB881A4322
:101E200002808B8883850B8803850A4B98420BD0F0
:101E3000094B984208D00E4B984205D00D4B984262
:101E400002D00D4B984201D10B7A03860123838285
:101E500070470000002C01400034014000040040A5
:101E600000080040000C004000100040001400403A
:101E70000040014000440140004801404FF6FF711E
:101E8000818000210180C1804180017270477047CC
:101E900000BFFEE710B504466FF00400FFF7CAFA72
:101EA000E11704EB5171C1F3C701074A11701046E5
:101EB000007800EB4001C1EBC0104FF6FF7101EA62
:101EC000C0000249088010BD12000020140000204C
:101ED00070B504464FF4077094FBF0F0C6B24FF4AF
:101EE000077094FBF0F100FB114085B205E04FF460
:101EF000077000F009F8701EC6B2002EF7D115B1B8
:101F0000284600F001F870BD0146114A12884A4384
:101F10004FF0E0235A6100229A611A46126942F09A
:101F200001021A6100BF4FF0E022106900F00102C7
:101F30001AB100F48032002AF5D04FF0E022126985
:101F400022F001024FF0E0231A6100229A617047EB
:101F50001400002010B5FFF7FFF8FEF7DFFF402068
:101F6000FFF798FFFEF776FE41F6FF010920FFF725
:101F700063FC4FF4FA710420FEF7A4FFFFF7A0FA08
:101F8000FEF76AF9FEF792FBFEF7A4FE002010BDF3
:101F90000080008800900098801100900018009840
:101FA0000003060205010400000503010604020007
:101FB000D01F000800000020640000002801000875
:101FC0003420000864000020B40700004401000829
:101FD0000000000000000000000000000000000001
:101FE000000000000000000064000000000000008D
:101FF000000000000000000000000000EC04EC0401
:1020000000000000000000000000000000000000D0
:1020100000000000000000000000000000000000C0
:102020000000000000000000000000000000E001CF
:04203000F3000000B9
:04000005080000ED02
:00000001FF
