:020000040800F2
:10000000180D0020890100089101000893010008E3
:100010009501000897010008990100080000000000
:100020000000000000000000000000009B0100082C
:100030009D010008000000009F010008A1010008C8
:10004000A3010008A3010008A3010008A301000800
:10005000A3010008A3010008A3010008A3010008F0
:10006000A3010008A3010008A3010008A3010008E0
:10007000A3010008A3010008A3010008A3010008D0
:10008000A3010008A3010008A3010008A3010008C0
:10009000A3010008A3010008A3010008A51100089E
:1000A000A301000839280008A3010008A3010008E3
:1000B000292B0008A3010008A3010008A3010008E0
:1000C000A3010008A3010008A3010008A301000880
:1000D000A3010008A3010008C5320008A30100081D
:1000E000A3010008A3010008A301000800F002F822
:1000F00000F03AF80AA090E8000C82448344AAF188
:100100000107DA4501D100F02FF8AFF2090EBAE885
:100110000F0013F0010F18BFFB1A43F0010318473B
:10012000F437000014380000103A24BF78C878C1B2
:10013000FAD8520724BF30C830C144BF04680C60ED
:10014000704700000023002400250026103A28BF35
:1001500078C1FBD8520728BF30C148BF0B60704739
:100160001FB51FBD10B510BD00F031F81146FFF7E7
:10017000F7FF03F0A5F900F04FF803B4FFF7F2FF23
:1001800003BC00F057F800000948804709480047C1
:10019000FEE7FEE7FEE7FEE7FEE7FEE7FEE7FEE737
:1001A000FEE7FEE704480549054A064B7047000094
:1001B000A9260008ED00000818070020180D0020EF
:1001C00018090020180900207047704770477546CD
:1001D00000F02CF8AE4605006946534620F00700B3
:1001E000854618B020B5FFF7DDFFBDE820404FF091
:1001F00000064FF000074FF000084FF0000B21F011
:100200000701AC46ACE8C009ACE8C009ACE8C009DD
:10021000ACE8C0098D46704710B50446AFF30080C6
:100220002046BDE81040FFF7A8BF00000048704717
:10023000B406002001491820ABBEFEE726000200EC
:10024000704721B1826842F00102826003E0826857
:1002500022F001028260704700B587B001214FF49F
:10026000037001F045FE0320ADF8040000208DF876
:10027000070003208DF8060001A92D4801F068F958
:100280000220ADF8040000208DF8070003208DF84F
:10029000060001A9274801F05BF900200290012027
:1002A0008DF80C0000208DF80D004FF460200490B4
:1002B0000020059002208DF8180002A91E4800F0C9
:1002C00065F800211C4800F044F804211A4800F0A9
:1002D000C6F8002301221146174800F07FF80023DA
:1002E00002220921144800F079F800230322082192
:1002F000114800F073F801210F48FFF7A2FF0E48E4
:1003000000F0B9F800BF0C4800F035F80028FAD129
:10031000094800F0B5F800BF074800F022F80028AF
:10032000FAD10121044800F009F807B000BD00002F
:10033000000C0140000801400024014021B1826806
:1003400042F40042826003E0826822F4004282604C
:1003500070470A460021816821F4E0411143816021
:100360007047014600208A6802F004020AB10120A9
:1003700000E000207047014600208A6802F0080271
:100380000AB1012000E000207047000030B50246AD
:100390000020002350680F4C20400D790C6844EA7F
:1003A00005242043506090680B4C2040D1E9025452
:1003B0002C434D7944EA450420439060D06A20F4F0
:1003C00070000C7C641EE4B2234340EA0350D06208
:1003D00030BD0000FFFEF0FFFDF7F1FFF0B5044671
:1003E0001546002000220026092911DDE068A1F150
:1003F0000A0707EB470C072707FA0CF29043A1F115
:100400000A0707EB470703FA07F21043E0600CE026
:10041000206901EB410C072707FA0CF2904301EB2E
:10042000410703FA07F210432061A06BC0F30156A5
:10043000EF1C06F1010CA7EB0C0707EB870C1F273D
:1004400007FA0CF29043EF1C06F1010CA7EB0C0726
:1004500007EB870701FA07F21043A063F0BD10B560
:100460000A4600210023816B21F44011531E41EA0A
:100470000351816310BD816841F0080181607047BC
:10048000816841F0040181607047014601EBC100C1
:1004900000EB0110001100EB40100012704700004B
:1004A00001460022002305E005480068104482B29E
:1004B000581CC3B28B42F7DB92FBF1F080B270475D
:1004C0003C24014010B5044680222146014802F038
:1004D000FAFE10BDF8360008014601EB810040F33A
:1004E0005910704700B5AB480078012862D1AA487E
:1004F000007803285ED0A848007801280ED1A748CC
:100500000088A749098848437F2190FBF1F1A5485D
:10051000008809380844A449086016E09E4800781D
:1005200098B99E4800889F49098848437F2190FBDD
:10053000F1F19C4800880930401A9B490860084640
:100540000068002801DA0020086097480068974991
:100550000968884217DD9448008894490988401A40
:100560009349088093480078012806D19248008872
:10057000002802DD01209149087000209049087090
:100580009049087016E08948008887490988401A10
:10059000874908808748007830B987480088002854
:1005A00002DD01208549087001208549087000207E
:1005B0008549087085480078012802D1754800787F
:1005C00018B17F4800787B4908707948008809286D
:1005D00021DD01207E49087075480088652804DD0A
:1005E00040F2DC507B4908800DE0714800881528F6
:1005F00006DD6F480088000174387649088002E003
:10060000DC20744908809020734908804FF41670EC
:100610007249088008E000206E4908806E49088011
:100620006E4908806249088064480078012834D106
:10063000002068490880684908805D49088067494A
:1006400008805D480088B0F5967F06DC6448008825
:10065000012802D102205E49087057480088A0286E
:1006600005DC5F480088022801D1594908705248CA
:1006700000888C2806DC5A480088032802D1022012
:100680005349087056480088042806D14A48008813
:10069000502802DC02204E49087052480078012898
:1006A0002ED15148007801282AD1504800883B4972
:1006B0000988884212D14E48007837490978884223
:1006C0000CD10020434908804349088038490880FC
:1006D0004249088002203E49087011E0002041494B
:1006E00008704149087090203B4908804FF416700B
:1006F0003A4908802E48008800017438354908803E
:1007000024480078012806D123480078032802D124
:1007100002202F4908703748007810B90020364968
:100720000870234800880A2816DB29480078022828
:1007300012D02648007878B13048007801280BD0D4
:1007400021480078012807D01E480078012803D0EE
:100750002948007801280CD1002017490880174942
:10076000087001F049FF01F06FFF0220184908707E
:100770000AE02348808E10490880084600882049F6
:1007800048630D48008808620B4800881D490880AE
:1007900000BD000077000020750000205E000020F2
:1007A0006C0000206A00002064000020700000201F
:1007B0006E000020740000205C000020B1000020CA
:1007C000D4000020C5000020C400002076000020D6
:1007D00058000020B4000020D8000020D6000020DF
:1007E000960000207B0000207A0000207C00002082
:1007F0007E00002092000020D2000020790000201E
:1008000000050020520000205D48007801287DD1BD
:100810005C4800780028FAD15B4800780028F6D1BF
:1008200050205A4908805A48007800283FD10120BA
:10083000584908705848006800F40070D8B9574803
:100840000088642811DA02205549087000205549B3
:10085000486308625449486308625449086054492F
:10086000088001204A49087021E04F48406B401041
:100870004D4948631BE04F480078012817D10020FC
:100880004C490870022046490870002045494863D9
:100890000862454948630862012047490870002002
:1008A00042490860424908800120394908703848A7
:1008B000007801284ED13A49087000203549087067
:1008C0003E4800883E4909880844394909888842D9
:1008D0000ADC01202B490870354800883949088016
:1008E00001202C49087035E02648007828BB3348A1
:1008F00000883349098808442D490988884229DD40
:1009000031480078012825D12C4800E037E00088E4
:100910002B490988084400EBC0000A2190FBF1F044
:1009200023490988884209DD0120174908702248B7
:10093000007810B90120254908700BE000202249F9
:1009400008701B4800881F49088001200D49087065
:10095000104908700B480078012803D00A48007835
:1009600001280CD100201A49088011490880074944
:10097000088002200A490870002005490870704765
:100980007600002077000020790000206E00002013
:100990007800002074000020080C01405200002064
:1009A00058000020C005002000050020AC000020F9
:1009B000A2000020C5000020930000206A00002053
:1009C0006C00002068000020C4000020940000207B
:1009D000B200002010B50E480078012803D1522043
:1009E00002F092FB0FE00B48007860B908480078ED
:1009F00048B90948007818B9712002F085FB02E077
:100A0000702002F081FB01F02DFC00F0C1FF10BD51
:100A10009B000020760000209200002010B5F948CD
:100A2000007801284DD1F848007801280BD0F6480D
:100A30000078022807D0F4480078032803D0F24851
:100A4000007804283AD1F0480078F0490880EE4850
:100A500000784AF6AA214840EC4948804AF6AA2084
:100A600088800322EA4801F00FFD0322E949E848A3
:100A700001F0F6FCE7480088E7490880084600884E
:100A80004AF6AA214840E3494988884212D1E14800
:100A900080884AF6AA2188420CD10120DF490870DB
:100AA0000020DF490870D7490870DE490870D64930
:100AB000087006E00120DB49087002E00120D949F6
:100AC0000870D7480078002871D1D34800880128E1
:100AD0007CD1D5480088A62811DDD448017800785B
:100AE000401CD24A107032291DDD32201146087098
:100AF000CF48007840F00200CD49087013E0CA48A2
:100B000000887E280FDAC9480078002805DDC7482C
:100B10000078401EC549087005E0C548007820F0FF
:100B20000200C3490870C0480088642811DAC1482F
:100B300001780078401CBF4A107032291DDD322038
:100B400011460870BA48007840F00100B8490870B2
:100B500013E0B54800886E280FDDB64800780028FD
:100B600005DDB4480078401EB249087005E0B04881
:100B7000007820F00100AE490870AB4800885A2880
:100B800016DAAD4801780078401CAB4A1070322963
:100B90000DDD322011460870A548007840F00400B1
:100BA000A34908700846007820F001000870DBE1D6
:100BB0009D4800886428FADD9F480078002806DDFB
:100BC0009D480078401E9C490870CDE106E0984899
:100BD000007820F0040096490870C5E18E4800882E
:100BE000022870D190480088B0F5A77F11DD8F48AA
:100BF00001780078401C8D4A107032291EDD3220A9
:100C0000114608708A48007840F002008849087050
:100C100014E085480088B0F5937F0FDA83480078A8
:100C2000002805DD81480078401E8049087005E0F5
:100C30007F48007820F002007D4908707A480088DB
:100C4000DC2811DA7B4801780078401C794A107062
:100C500032291DDD3220114608707548007840F0B9
:100C600001007349087013E06F480088E6280FDD23
:100C700070480078002805DD6E480078401E6D49F8
:100C8000087005E06A48007820F0010068490870A3
:100C900065480088D22817DA674801780078401C38
:100CA000654A1070322990DD322011460870604884
:100CB000007840F004005E4908700846007820F093
:100CC0000100087050E114E057480088DC2884DDFA
:100CD00059480078002805DD57480078401E5649DD
:100CE000087041E15248007820F004005049087033
:100CF0003AE149480088032873D14B480088B0F591
:100D0000E67F11DD494801780078401C474A1070A1
:100D100032291EDD3220114608704548007840F027
:100D200002004349087014E03F480088B0F5D27FC4
:100D30000FDA3E480078002805DD3C480078401E68
:100D40003A49087005E03A48007820F00200384936
:100D5000087035480088B0F5AA7F11DA3548017867
:100D60000078401C334A107032291EDD32201146B3
:100D700008702F48007840F001002D49087014E0F9
:100D800029480088B0F5AF7F0FDD2A480078002899
:100D900005DD28480078401E2649087005E02448F3
:100DA000007820F00100224908701F480088B0F543
:100DB000967F17DA204801780078401C1E4A107090
:100DC00032298EDD3220114608701948007840F033
:100DD0000400174908700846007820F001000870E8
:100DE000C2E032E010480088B0F59B7F08DD124871
:100DF0000078002822DD10480078401E0E49087057
:100E0000B2E000009800002060000020DC0000201C
:100E100000780008E20000209600002099000020E1
:100E20009B0000209A000020CE000020E900002056
:100E300092000020EA000020E800002068480078C6
:100E400020F00400664908708EE066480088042897
:100E500074D16548008840F24A21884211DD634818
:100E600001780078401C614A107032291FDD322061
:100E7000114608705A48007840F00200584908703E
:100E800015E05948008840F2222188420FDA57487D
:100E90000078002805DD55480078401E5349087049
:100EA00005E04F48007820F002004D4908704E4898
:100EB0000088B0F5CD7F11DA4D4801780078401CEC
:100EC0004B4A107032291EDD32201146087044480A
:100ED000007840F001004249087014E04248008860
:100EE000B0F5D27F0FDD42480078002805DD40488C
:100EF0000078401E3E49087005E03948007820F02F
:100F000001003749087038480088B0F5C37F16DA09
:100F1000384801780078401C364A1070322923DDA9
:100F20003220114608702E48007840F004002C4909
:100F300008700846007820F00100087014E02A4884
:100F40000088B0F5C87F0FDD2A480078002805DD4D
:100F500028480078401E2749087005E0204800789E
:100F600020F004001E490870234800685F280BDD4C
:100F70001B48007840F020001949087008460078A6
:100F800020F04000087009E01B480068412805DA9D
:100F90001348007820F020001149087016480068B6
:100FA000502806DD0E48007840F040000C490870DB
:100FB00009E0114800683C2805DA0948007820F06B
:100FC0004000074908700D480088B0F5967F05DDA0
:100FD0000348007840F008000149087010BD000087
:100FE0009200002096000020CE000020E9000020A2
:100FF000EA000020E8000020C8000020CC0000200B
:1010000010B55A48007800285AD15948007801286C
:10101000FAD158480078012853D1574800885749D9
:10102000088054480078564908705649088800EBF3
:10103000D0714910544A11805249088800EBD07190
:101040004910524A1180524800884F490988401A75
:10105000504908804C480088098808444A4908805B
:10106000104600884B490988401A114608804648B6
:10107000008849490880104600884880104600884A
:10108000414909884840444988804AF6AA20C880D6
:101090000422424801F0F8F9042241493F4801F096
:1010A000DFF93F48C0883C49C98888425CD13C4848
:1010B000808839498988884256D101202B49087097
:1010C00052E02D4800882D4908802A4800782C4994
:1010D00008702C49088800EBD07149102A4A118009
:1010E0002849088800EBD0714910284A1180264809
:1010F000008827490988401A264908802248008824
:101100000988401A2049088010460088214909882A
:101110000844114608801C4800881F490880104672
:1011200000884880104600881749098848401A49B5
:1011300088804AF6AA20C8800422184801F0A4F941
:1011400004221749154801F08BF91548C088124947
:10115000C988884208D1124880880F498988884206
:1011600002D101200149087010BD00007B00002061
:101170007A000020750000205E0000207C00002026
:101180007E000020680000206A0000206C00002023
:1011900070000020800000208A000020007C0008F1
:1011A0008200002010B5402000F0A2F810B14020CD
:1011B00000F098F8802000F09BF810B1802000F03B
:1011C00091F84FF4807000F093F818B14FF48070EC
:1011D00000F088F8384800F08FFA3849088008464F
:1011E000008800F4E07008800846008880110880BC
:1011F0000846007800F007003149324A1278895CCD
:1012000088420BD130480068401C2F4908602F48A5
:10121000007820F080002D4908702FE027480078E2
:1012200000F007012A48274A1278805C81420BD1DE
:1012300025480068401E244908602448007820F0B2
:1012400080002249087019E01C48007800F007006F
:101250001F491C4A1278895C884209D117480078D6
:1012600000F007011648174A1278805C814205D0C9
:101270001648007840F08000144908700F48007844
:1012800000F007000F49087012480088401C1149FF
:10129000088011480078012803D010480078012800
:1012A00002D100200B4908800D480088401C0C49E1
:1012B000088000F0C7FA10BD000C01401E0000209D
:1012C0000A390008B0000020AC0000209200002085
:1012D00002390008A20000207700002079000020D9
:1012E000A400002001490860704700001404014078
:1012F000014600200022074B1B6803EA0102054B50
:1013000014331B680B4013B10AB1012000E0002028
:101310007047000000040140002123498279002A1F
:101320003AD00A46126803689A430B461A600A1DAF
:10133000126803689A430B1D1A60027911440A6807
:1013400003681A430A60184A0832126803689A430D
:10135000154B08331A601A1D126803689A43124B22
:101360000C331A604279102A0ED11A1F12680368D2
:101370001A430D4B08331A601A1D126803681A438A
:10138000094B0C331A600DE00749427911440A6891
:1013900003681A430A6005E0027911440A68036889
:1013A0009A430A607047000000040140002006498B
:1013B0000870064908700649087006490870064911
:1013C0000870064908707047D20000209200002083
:1013D0009300002094000020C4000020C5000020DD
:1013E00030B5044604254FF4302000F07DF8054662
:1013F000042D17D10C48006940F002000A49086129
:1014000008464461006940F0400008614FF4302014
:1014100000F06AF805460448006941F6FD7108408D
:1014200001490861284630BD0020024004200B49D4
:10143000C96801F0010109B101200EE00749C9683E
:1014400001F0040109B1022007E00449C96801F074
:10145000100109B1032000E0042070470020024081
:101460000348006940F080000149086170470000AE
:10147000002002400549096821F01001034A11606B
:1014800011460968014311607047000000200240C6
:1014900070B504460D460426F00200F025F8064615
:1014A000042E11D10948006940F001000749086184
:1014B0002580F00200F018F806460448006941F65D
:1014C000FE71084001490861304670BD00200240AD
:1014D0000248034948600348486070472301674554
:1014E00000200240AB89EFCD00B502460423FFF790
:1014F0009DFF034603E0FFF799FF0346521E012BB1
:1015000001D1002AF7D102B90523184600BD000019
:1015100030B500228B071C0F0F2303FA04F20B4B8C
:101520008C1053F824309343084C8D1044F8253028
:1015300023468C1053F824308C07240F00FA04F44F
:101540002343024C8D1044F8253030BD0800014083
:101550002DE9F0410246002500260020002300244A
:10156000002791F803C00CF00F0591F803C00CF0B0
:10157000100CBCF1000F03D091F802C04CEA050535
:1015800091F800C0BCF1000F31D0146800202BE0AE
:101590004FF0010C0CFA00F3B1F800C00CEA03069E
:1015A0009E4220D183004FF00F0C0CFA03F7BC438E
:1015B00005FA03FC4CEA040491F803C0BCF1280FBF
:1015C00006D14FF0010C0CFA00FCC2F814C00AE07E
:1015D00091F803C0BCF1480F05D14FF0010C0CFA93
:1015E00000FCC2F810C0401C0828D1D31460B1F828
:1015F00000C0BCF1FF0F34DD546800202EE000F184
:10160000080C4FF0010808FA0CF3B1F800C00CEA1E
:1016100003069E4221D183004FF00F0C0CFA03F712
:10162000BC4305FA03FC4CEA040491F803C0BCF186
:10163000280F05D100F1080C08FA0CF8C2F8148044
:1016400091F803C0BCF1480F07D100F1080C4FF02E
:10165000010808FA0CF8C2F81080401C0828CED304
:101660005460BDE8F0810000F0B50A460023002474
:101670000021002500F00046B6F1004F02D11D4EBA
:10168000F16901E01B4E7168C0F3034583B200F4B9
:101690004016B6F5401F08D121F07061154E7668EE
:1016A00026F07066134F7E6012E000F48016B6F5E7
:1016B000801F06D1032606FA05F4A14341F07061AC
:1016C00006E0460D360103FA06F6B14341F07061BB
:1016D00022B1460D360103FA06F6314300F000460A
:1016E000B6F1004F02D1034EF16101E0014E71608D
:1016F000F0BD0000000001400146886880B27047DC
:101700000246002093680B400BB1012000E000204E
:1017100070474161704701617047000070B5002556
:1017200008212348FFF7F7FF052001F041FE0024C0
:1017300039E04FF400611F48FFF7EBFF05E0681C3C
:10174000C5B2C82D01DD002070BD02211A4800F08D
:101750005BFE0028F3D00025184830F81410164816
:1017600000F05EFE05E0681CC5B2C82D01DD00205A
:10177000EAE70121104800F047FE0028F3D00025D9
:101780000CB9082600E0661E0B4800F046FE0C4926
:1017900021F816004FF400610648FFF7BCFF012056
:1017A00001F006FE641C092CC3DB0120CCE700001D
:1017B000000C01400008014000300140F0380008F2
:1017C000000000201FB50121082000F091FB4FF41C
:1017D000E070ADF80C0004208DF80F0003208DF8A8
:1017E0000E0003A91648FFF7B3FE06210120FFF7FC
:1017F0008FFE07210120FFF78BFE08210120FFF754
:1018000087FE4FF4E070019000208DF80800102052
:101810008DF8090001208DF80A0001A8FFF77CFD72
:1018200017208DF8000000208DF801008DF80200CF
:1018300001208DF80300684600F02EFA1FBD00005D
:10184000000C014010B54C480078012806D14B48E7
:10185000007880F007004A49087003E047480078A4
:10186000474908704648007807287DD2DFE800F035
:10187000806A415618042C0042480088424908807A
:101880000020091D0880091D08804FF4A0613F4811
:10189000FFF73FFF4FF400713C48FFF73CFF68E063
:1018A00038480088384908800020091D0880091D33
:1018B00008804FF440713548FFF72BFF4FF48061EB
:1018C0003248FFF728FF54E000202F4908802D48B8
:1018D0000088091D08800020091D08804FF4407110
:1018E0002A48FFF716FF4FF480612848FFF713FFDF
:1018F0003FE000202449088022480088091D088014
:101900000020091D08804FF4C0612048FFF701FF47
:101910004FF480711D48FFF7FEFE2AE000201A49AF
:101920000880091D088017480088091D08804FF4A9
:10193000C0611648FFF7EDFE4FF480711348FFF7C2
:10194000EAFE16E0002010490880091D08800D48B5
:101950000088091D08804FF4A0610C48FFF7D9FEEC
:101960004FF40071094800E002E0FFF7D4FE00E008
:1019700000BF00BF10BD0000740000201E0000204A
:101980005400002052000020342C01400008014087
:1019900010B500F073FB002845D025480478254891
:1019A0000470A4F1700005283BD2DFE800F00312B8
:1019B000162830001E4840781F4908701C4880785F
:1019C0001E490880084600887F2801DD7F200880A6
:1019D00028E001201A49087024E001201949087004
:1019E00013484078144908701148807813490880DA
:1019F000084600887F2801DD7F20088012E0012052
:101A0000114908700A488078104908700AE00120DE
:101A10000F49087006488078642801D10D49087084
:101A200000E000BF00BF204601F06EFB002010BDAB
:101A30003C00002033000020750000205E000020E4
:101A4000760000207A00002098000020600000202E
:101A5000D2000020D30000204CF6CC4001490860A1
:101A6000704700000030004070B505460C4645F256
:101A7000555000F01FF8284600F010F8204600F0FE
:101A800013F800F003F8FFF7E7FF70BD4AF6AA204D
:101A9000014908607047000000300040014948607B
:101AA0007047000000300040014988607047000026
:101AB00000300040014908607047000000300040DD
:101AC00008B50121182000F013FA0121092000F0C7
:101AD0000FFA0820ADF8000010208DF80300032055
:101AE0008DF8020069464248FFF732FD0121414866
:101AF000FFF7BAFD0121082000F0FAF94FF48050F9
:101B0000ADF8000048208DF8030003208DF8020096
:101B100069463748FFF71CFD0121082000F0E8F96D
:101B20004FF40060ADF8000048208DF8030003205A
:101B30008DF8020069462E48FFF70AFD01210820B2
:101B400000F0D6F94FF48060ADF8000048208DF821
:101B5000030003208DF8020069462548FFF7F8FCD2
:101B60000121042000F0C4F91020ADF800008DF828
:101B7000030003208DF8020069461F48FFF7E8FCC8
:101B800010211D48FFF7C7FD0121042000F0B0F926
:101B90004FF40060ADF8000010208DF80300032022
:101BA0008DF8020069461448FFF7D2FC4FF400613B
:101BB0001148FFF7B0FD4FF40070ADF800000420AD
:101BC0008DF8030003208DF8020069460848FFF7EE
:101BD000BFFC4FF40050ADF8000010208DF803005A
:101BE00003208DF8020069460448FFF7B1FC08BDE8
:101BF000000C0140000230000008014000100140CC
:101C000070B504460D46164655200649087008462C
:101C100044708570C670042100F006F8014908710F
:101C200070BD00003400002010B502460B460020B5
:101C3000002103E0545C60404C1CE1B29942F9DBA6
:101C400010BD000000B50E480078012817D10D48DE
:101C5000007820B90C4800880C49C86003E00C48A3
:101C600000880A49C8600B480088C82148430721FA
:101C700090FBF1F005490861084600F059F800BDF5
:101C80005800002077000020B2000020000500204E
:101C9000B4000020A600002070B5002100230F2210
:101CA000C47804B3154C246804F4E064C4F5E0641B
:101CB000210AC1F10403CA40447804FA03F184788C
:101CC0001440214309010E4C0678A155047804F014
:101CD0001F050124AC4005786D11AD0005F1E0252C
:101CE000C5F8004109E0047804F01F050124AC4068
:101CF000044D0678761145F8264070BD0CED00E0E5
:101D000000E400E080E100E002490143024A116082
:101D1000704700000000FA050CED00E0024A0A409E
:101D20000243024B1A60704780FFFF1F08ED00E07E
:101D3000D0E90312891A41614169B1F5487F02DD9A
:101D40004FF448714161426901685143142291FB8B
:101D5000F2F1C1614269416851430F2291FBF2F1F6
:101D6000026A11440162D0E9071211444163C26A58
:101D7000416B914201DDC16A416321490988012912
:101D80000DD1416BB1F5E16F02DD4FF4E1614163CB
:101D9000416BB1F5AF7F02DA4FF4AF71416318497F
:101DA000098802290BD1416BB1F5C86F02DD4FF4F0
:101DB000C8614163416BA02901DAA0214163104948
:101DC000098803290BD1416BB1F5AF6F02DD4FF4E8
:101DD000AF614163416B782901DA78214163084999
:101DE000098804290BD1416BB1F57A7F02DD4FF4EC
:101DF0007A714163416B502901DA50214163704788
:101E00009600002010B504221149124800F028FB6A
:101E10000F48C0884AF6AA21884211D10C48008890
:101E20000B49498848400A498988884208D10848AE
:101E3000008809490880064840880849088005E06C
:101E40004FF4D260044908800449088010BD0000A6
:101E500082000020007C00086C0000206A00002046
:101E600010B503220F49104800F0FAFA0D48008817
:101E70000E490880084600884AF6AA2148400949C8
:101E8000498888420AD1074880884AF6AA218842B0
:101E900004D1044800880549088002E00120034974
:101EA000088010BDE20000200078000896000020A5
:101EB00029B1064AD2690243044BDA6104E0034ABD
:101EC000D2698243014BDA61704700000010024082
:101ED00029B1064A12690243044B1A6104E0034A1D
:101EE00012698243014B1A617047000000100240E2
:101EF00029B1064A92690243044B9A6104E0034AFD
:101F000092698243014B9A617047000000100240C1
:101F100029B1064AD2680243044BDA6004E0034A5E
:101F2000D2688243014BDA60704700000010024023
:101F300010B5002400F052F8012000F093F8254875
:101F4000406820F0F000234948600846406820F4CB
:101F5000605048600846446824F4E06444F48064B7
:101F600044601D48006800F038001B4908600846BE
:101F7000006840F0020008601020FFF77BFA164866
:101F8000006820F01000144908600846006840F01E
:101F9000100008600F48446824F47C1444F4621470
:101FA0004460012000F064F800BF392000F03CF8E4
:101FB0000028FAD00748446824F0030444F00204DF
:101FC000446000BF0348406800F00C000828F9D1C5
:101FD00010BD000000100240002002400F480068C1
:101FE00040F001000D490860084640680C4908406F
:101FF0000A494860084600680A49084007490860DD
:102000000846006820F4802008600846406820F4F4
:10201000FE0048604FF41F008860704700100240C7
:102020000000FFF8FFFFF6FE10B501460022002376
:1020300000204A11012A02D1094C236806E0022A35
:1020400002D1074C236A01E0054C636A01F01F02CC
:10205000012494401C400CB1012000E0002010BD80
:102060000010024001490860704700000000424231
:1020700001490866704700000000424208B5684602
:1020800000F060F9002871D04448007830B1012890
:1020900018D002284FD003287BD169E09DF80000BA
:1020A000552808D13D480078401C3C49087055200F
:1020B0003B49087002E00020384908700020394987
:1020C000087067E09DF80000702817D09DF80000A8
:1020D000712813D09DF8000072280FD09DF80000E1
:1020E00073280BD09DF80000742807D09DF80000DD
:1020F000522803D09DF80000752816D12748007893
:10210000401C26490870264800789DF80010484079
:10211000234908709DF80010224802780078401C7E
:10212000204B18702048815404E000201B4908709F
:102130001C4908702EE09DF800101A4802780078BB
:10214000401C184B187018488154154800789DF8A9
:10215000001048401249087018460078032804DB34
:102160000E480078401C0D49087013E013E010E0A1
:1021700000200A4908700B4908700948007800F0EF
:102180007F009DF80010884202D10748007808BD02
:1021900000E000BF00BF0020F9E700003900002088
:1021A0003B0000203A0000203C00002000B587B032
:1021B00001210420FFF79CFE01210803FFF798FE90
:1021C0002020ADF8180018208DF81B0003208DF892
:1021D0001A0006A92148FFF7BBF94020ADF8180006
:1021E00048208DF81B0003208DF81A0006A91B4813
:1021F000FFF7AEF98020ADF8180018208DF81B000D
:1022000003208DF81A0006A91448FFF7A1F9002051
:10221000ADF804004FF48270ADF806004FF4006092
:10222000ADF808000020ADF80A000120ADF80C0060
:102230004002ADF80E003820ADF810000020ADF8D7
:1022400012000720ADF8140001A9054800F0EAF8D3
:102250000121034800F0CCF807B000BD00080140A0
:102260000030014070B500242DE010212248FFF716
:1022700050FA05E0601C84B2C82C01DD002070BD5E
:1022800002211E4800F0C0F80028F3D0002400F01E
:1022900079F805462946194800F0C2F805E0601CA7
:1022A00084B2C82C01DD0020E9E70121134800F0C9
:1022B000ABF80028F3D00024104800F0AEF8C5B207
:1022C000284600F077F80E48C07B0028CDD106E004
:1022D000601C84B2B4F57A7F01DD0020CFE70221D3
:1022E000064800F091F80028F2D010210248FFF7CC
:1022F00012FA0120C3E7000000080140003001404D
:10230000F000002001460E48C07B052801DB0020BC
:1023100070470B48427B401D8154401F407B401C4E
:10232000074A50731046407B052801DB002050739C
:102330000348C07B401C024AD0730120E8E700003C
:10234000F000002001460E48807B08B9002070474D
:102350000B48807A0A4A105C08701046807A401C4C
:1023600090721046807A052801DB0020907272B6C8
:102370000348807B401E024A907362B60120E6E764
:10238000F00000200A490A7B491D885C491F097B2F
:10239000491C074A11731146097B052901DB0021FD
:1023A00011730349C97B491E014AD173704700006C
:1023B000F000002001460D48C07A0C4A1154104626
:1023C000C07A401CD0721046C07A052801DB00207C
:1023D000D0720648807B401CC0B2044A9073052826
:1023E00001DB012070470020FCE70000F000002026
:1023F00021B1028842F04002028004E002884FF6D8
:10240000BF731A40028070470246002013890B40B8
:102410000BB1012000E00020704701468889704719
:102420008181704710B50022028802F441520B8866
:102430004C8823438C882343CC8823430C89234333
:102440004C8923438C892343CC8923431A4302803C
:10245000838B4FF2FF74234083830B8A038210BD6A
:1024600030B503460C461546002207E0184600F03A
:1024700008F824F812009B1C501C82B2AA42F5DB1B
:1024800030BD0146088870472DE9F04105460E46EB
:102490001746FFF71DF81FE0A5F10061890A4FF00C
:1024A000006202EB8120FEF79BFF002406E036F875
:1024B00014000C4921F81400601C84B2BC42F6DB05
:1024C000A5F10061890A4FF0006202EB81203A46D3
:1024D000044900F009F800E0DEE700BFFEF7C0FFA6
:1024E000BDE8F081000100202DE9F04105460E46CF
:1024F0001746002407E036F814102846FEF7C8FFF8
:10250000AD1C601C84B2BC42F5DBBDE8F08110B5A7
:1025100000F002F810BD00000CB500200190009002
:102520003348006840F480303149086000BF3048CB
:10253000006800F4003000900198401C0190009861
:1025400018B90198B0F5A06FF1D12948006800F4DE
:10255000003010B10120009001E0002000900098B0
:10256000012843D12348006840F010002149086049
:102570000846006820F0030008600846006840F044
:10258000020008601A4840681949486008464068D7
:1025900048600846406840F48060486008464068EB
:1025A00020F47C1048600846406840F4E810486019
:1025B0000846006840F08070086000BF0C48006862
:1025C00000F000700028F9D00948406820F00300AE
:1025D000074948600846406840F00200486000BF74
:1025E0000348406800F00C000828F9D10CBD000039
:1025F000001002400020024001200649086002202D
:102600004860002008624863C82008634FF4E16016
:10261000C86270470005002041882A2901DB00219B
:1026200041800288816811444288064B53F8222079
:10263000891A81600188428843F822104188491C28
:10264000418070470C060020002000BF05E04FF4D9
:10265000BA61094A42F82010401C2A28F7DB4FF2E1
:102660002441064A91600021518040F2EE21118000
:1026700042F22831D18070470C060020000600206D
:10268000042808D14FF0E021096941F004014FF01E
:10269000E022116107E04FF0E021096921F0040117
:1026A0004FF0E0221161704710B51348006840F008
:1026B00001001149086008464068104908400E4969
:1026C0004860084600680E4908400B490860084603
:1026D000006820F4802008600846406820F4FE006E
:1026E00048604FF41F008860FFF711FF4FF0006053
:1026F0000449086010BD0000001002400000FFF80F
:10270000FFFFF6FE08ED00E000B589B0012140F6BC
:102710000C00FFF7EDFB454800F072FA4FF4E06063
:10272000ADF8200003208DF8220010208DF8230042
:1027300008A93F48FEF70CFF4FF46040ADF82000B9
:1027400018208DF8230003208DF8220008A93948AD
:10275000FEF7FEFE05A800F0CDFC0020ADF8140049
:102760002020ADF8160040F2CF70ADF818004FF4FD
:102770008070ADF81A0000208DF81C0005A92B48C8
:1027800000F066FC20202949091D088001A800F0FE
:1027900054FC6020ADF804000020ADF806000420D1
:1027A000ADF808000020ADF80A00ADF80E0001A950
:1027B0001E4800F033FB01A91C4800F085FB01A96D
:1027C0001A4800F0E1FB0821184800F073FB0821CB
:1027D000164800F0CBFB0821144800F025FC192016
:1027E0008DF8000001208DF8010000208DF8020016
:1027F00001208DF803006846FFF74EFA01221146CA
:102800000A4800F002FB0121084800F0CBF9002142
:10281000064800F0E5F90121044800F0CFF9012154
:10282000024800F0D1F909B000BD0000002C0140C1
:1028300000080140000C014010B5002401219D4812
:1028400000F0D2FA00287DD001219A4800F0B9F9B1
:1028500098483030008840B9964824300088642871
:1028600003DD01209349303108809348008842F20B
:102870001071884204DA90480088401C8E49088014
:102880008E4800688E4908808C48001D00688D497C
:1028900008808A48001F00688B4908800846008825
:1028A0008A490988884208DA8448001F00688749F5
:1028B0000988081A8449088002E0002082490880BB
:1028C000834A128802EB4201CA1701EB92729210FE
:1028D0007B4B1888C31700EB937302EBA3027D4B6D
:1028E0001A807D4A128802EB4201CA1701EB9272EC
:1028F0009210754B1888C31700EB937302EBA30279
:10290000764B1A80764A128802EB4201CA1701EB15
:10291000927292106B4B1888C31700EB937302EB03
:10292000A302704B1A806D480088FDF7AEFD6E491A
:10293000088068480088FDF7CFFD6C49088067482B
:10294000008800E0B4E0644908806248008860497B
:102950000880644800886249088000F0E9FC00F0C3
:10296000A3FE634800884FF6E851884204DA6048C5
:102970000088401C5E4908805E4800884FF6E85198
:10298000884204DA5B480088401C5A4908805A484B
:1029900000884FF6E851884204DA57480088401C06
:1029A0005549088055480078012806D00020504934
:1029B00008805049088050490880514800785149A2
:1029C0000988884231D04E4800784E4909784840FD
:1029D000C4B204F0010030B10020454908804549E7
:1029E00008804549088004F0020030B100204049C9
:1029F0000880404908804049088004F0040030B154
:102A000000203B4908803B4908803B4908803D48FD
:102A100000783B490870284800883B4908800846F0
:102A2000FFF7FAFD0020244908803148008847F26A
:102A30003051884207DC2F480088884203DC2E484A
:102A40000088884226DD2D480078012822D12F48B1
:102A5000007818B901202E49087002E001202D49A4
:102A600008702D48007801280DD1294800780128E8
:102A700003D028480078012805D12848007840F084
:102A8000100026490870002019490880194908805B
:102A9000194908802248006822490860FDF722FD94
:102AA00016480078012803D100F02CFC00F0E8FD66
:102AB00010BD0000002C0140A8000020402401406F
:102AC000BC000020C0000020BA000020B800002098
:102AD00022000020BE00002020000020DA0000209C
:102AE00024000020C2000020CC000020CE000020E6
:102AF00026000020280000202A0000205800002086
:102B00002C0000201E000020000600207400002081
:102B1000C4000020C50000207700002092000020A3
:102B2000AC0000207000002010B50121880700F0E3
:102B30005BF930B10121880700F043F80120014919
:102B4000087010BD1C0000207FB505460C46012111
:102B50000846FFF7ADF9ADF80850ADF80440002085
:102B6000ADF80A00ADF8060001A94FF0804000F072
:102B70006FFA01221146900700F047F91C208DF8EA
:102B8000000002208DF8010000208DF802000120D5
:102B90008DF803006846FFF77FF80121880700F0F1
:102BA00013F87FBD21B1028842F08002028004E068
:102BB00002884FF67F731A4002807047CA43028230
:102BC0007047CA430282704721B1028842F0010275
:102BD000028004E002884FF6FE731A4002807047BC
:102BE00031B1B0F8442042F40042A0F8442005E09E
:102BF000B0F84420C2F30E02A0F844207047000051
:102C000010B504466848844208D10121C014FFF77A
:102C10007FF90021E014FFF77BF9C4E0B4F1804FA5
:102C200008D101210846FFF753F900210120FFF7E1
:102C30004FF9B8E05D48844208D101210220FFF736
:102C400047F900210220FFF743F9ACE058488442DD
:102C500008D101210420FFF73BF900210420FFF7F0
:102C600037F9A0E05348844208D101210820FFF73A
:102C70002FF900210820FFF72BF994E04E488442F9
:102C800008D101211020FFF723F900211020FFF7C0
:102C90001FF988E04948844208D101212020FFF72C
:102CA00017F900212020FFF713F97CE04448844203
:102CB00008D101214014FFF72BF900216014FFF720
:102CC00027F970E03F48844209D10121C804FFF789
:102CD0001FF900214FF40020FFF71AF963E03A488A
:102CE000844209D101210805FFF712F900214FF4B0
:102CF0008010FFF70DF956E03448844209D10121D4
:102D00004805FFF705F900214FF40010FFF700F91F
:102D100049E02F48844208D101214020FFF7D8F82C
:102D200000214020FFF7D4F83DE02A48844208D132
:102D300001218020FFF7CCF800218020FFF7C8F8A0
:102D400031E02548844208D101218015FFF7C0F801
:102D50000021A015FFF7BCF825E02048844209D1E6
:102D600001210804FFF7D4F800214FF48030FFF769
:102D7000CFF818E01A48844209D101214804FFF72E
:102D8000C7F800214FF40030FFF7C2F80BE01548F8
:102D9000844208D101218804FFF7BAF800214FF4DA
:102DA0008020FFF7B5F810BD002C01400004004062
:102DB00000080040000C00400010004000140040DB
:102DC00000340140004C01400050014000540140DB
:102DD00000180040001C004000200040004001405E
:102DE000004401400048014030B502460020002365
:102DF0000024158A05EA0103958905EA010413B147
:102E00000CB1012000E0002030BD1AB183890B43D2
:102E1000838102E083898B438381704770B50024EE
:102E200000220023058C4FF6FE7635400584028C87
:102E30008388048B4FF68F752C40B51E2C400D886F
:102E40002C43751E2A400D892A434D882A43144D70
:102E5000A8420BD0134DA84208D0134DA84205D06C
:102E6000124DA84202D0124DA84213D14FF6F77569
:102E70002A404D892A434FF6FB752A408D882A4304
:102E80004FF6FF652B404FF6FF552B408D892B43A6
:102E9000CD892B4383800483CD888586028470BDD1
:102EA000002C01400034014000400140004401403A
:102EB000004801400A460021018B4FF6F773194084
:102EC000114301837047000070B5002400220023E5
:102ED000058C4FF6EF7635400584028C8388048B91
:102EE00048F6FF752C404FF6FF452C400D884FF6F5
:102EF000FF7606EA05252C434FF6DF752A400D893B
:102F000006EA05152A434D8806EA05152A43154D9C
:102F1000A84202D0144DA8421DD14FF67F752A4019
:102F20004D894FF6FF7606EA05152A434FF6BF7521
:102F30002A408D8806EA05152A434FF6FF352B40B7
:102F40004FF2FF752B408D8906EA85052B43CD890D
:102F500006EA85052B4383800483CD880587028498
:102F600070BD0000002C0140003401400A460021E1
:102F7000018B4FF2FF7319404FF6FF7303EA0223F0
:102F8000194301837047000070B50024002200231C
:102F9000058C4FF6FF6635400584028C8388848B50
:102FA0004FF68F752C404FF6FC752C400D882C4346
:102FB0004FF6FF552A400D894FF6FF7606EA0525A4
:102FC0002A434D8806EA05252A43154DA84202D01A
:102FD000144DA8421DD14FF2FF752A404D894FF67E
:102FE000FF7606EA05252A434FF6FF352A408D88ED
:102FF00006EA05252A434EF6FF752B404DF6FF7570
:103000002B408D8906EA05152B43CD8906EA051567
:103010002B4383808483CD888587028470BD000024
:10302000002C0140003401400A460021818B4FF6FC
:10303000F77319401143818370470021018041805B
:103040008180C180018141818181C18170470000FF
:10305000002202881D4B98420ED01D4B98420BD087
:10306000B0F1804F08D01B4B984205D01A4B9842C4
:1030700002D01A4B984204D14FF68F731A404B88F6
:103080001A43174B984207D0164B984204D04FF67C
:10309000FF431A40CB881A4302808B8883850B88B4
:1030A00003850A4B98420BD0094B984208D00E4B2F
:1030B000984205D00D4B984202D00D4B984201D159
:1030C0000B7A03860123838270470000002C0140A5
:1030D000003401400004004000080040000C0040A3
:1030E0000010004000140040004001400044014036
:1030F000004801404FF6FF71818000210180C180AE
:10310000418001727047000070B505460024722DA1
:103110005AD006DC522D51D0702D07D0712D73D1AD
:1031200010E0732D63D0742DF9D187E00020594948
:103130000870594908705948027800215120FEF75B
:103140005FFD92E056480078012805D11022002149
:103150005020FEF755FD30E052480078012827D175
:1031600051480078012809D150480078012805D13C
:10317000232200215020FEF743FD1EE04A4800783C
:10318000012808D14948007828B92122002150207F
:10319000FEF736FD11E04448007870B943480078E6
:1031A00001280AD1222200215020FEF729FD04E047
:1031B000402200215020FEF723FD56E00022114658
:1031C0005220FEF71DFD50E03948007828B9022250
:1031D00000215320FEF714FD08E03548007801284F
:1031E00004D1012200215320FEF70AFD3DE02948C9
:1031F0000078012812D12948007830B1032200213B
:103200005420FEF7FDFC05E02EE0012200215420B1
:10321000FEF7F6FC00201F4908700EE01E480078FB
:10322000012805D1022200215420FEF7E9FC04E028
:10323000022200215420FEF7E3FC16E01D4800782E
:1032400064280BD100201B490870FEF7AFF8134823
:10325000027800215120FEF7D3FC04E00022114641
:103260005520FEF7CDFC00E000BF00BF00240DE0BC
:103270001148005D114908550F49085DFFF742F8F4
:103280000D48015D0E480155601CC4B2052CEFDBF2
:1032900070BD0000990000209A00002092000020DC
:1032A0007700002079000020930000209400002087
:1032B0007B000020D3000020340000202E000020DE
:1032C000F5000020704770B503460C4615460026F1
:1032D000681E02B211E0B018411053F82100A0425C
:1032E00002DA481C06B208E053F82100A04202DDD1
:1032F000481E02B201E0084670BD9642EBDD104662
:10330000FAE7000007480078012809D1064800883C
:10331000B0F5167F04DD05480088401F034908808A
:103320007047000058000020CC0000205200002010
:1033300010B50D48007800F00800082810D10B489F
:103340000078401C094908700846007864280ADDA6
:103350000020087002200649087000F075F902E0AC
:1033600000200249087010BD92000020EC000020EF
:103370005800002010B504466FF00400FFF780F9F4
:10338000E11704EB5171C1F3C701074A11701046F0
:10339000007800EB4001C1EBC0104FF6FF7101EA6D
:1033A000C0000249088010BD4E00002050000020DF
:1033B0000146114A12884A434FF0E0235A61002225
:1033C0009A611A46126942F001021A6100BF4FF079
:1033D000E022106900F001021AB100F48032002AE4
:1033E000F5D04FF0E022126922F001024FF0E02305
:1033F0001A6100229A617047500000200146114A6C
:1034000012784A434FF0E0235A6100229A611A462B
:10341000126942F001021A6100BF4FF0E022106908
:1034200000F001021AB100F48032002AF5D04FF00A
:10343000E022126922F001024FF0E0231A6100221B
:103440009A6170474E00002010B5FEF771FD002113
:103450004FF00060FEF762FC4FF48060FEF754FC12
:10346000FEF72EFBFEF7A2FE4020FFF783FFFEF7DC
:1034700055F94FF4FA70FFF79BFF00210F48FEF754
:10348000B7FF0E4800884FF2FF7108400B490880D3
:1034900001210A48FEF7ACFF41F6FF010920FFF7C2
:1034A00053FB4FF4FA710420FEF7DEFAFCF7D4FE6A
:1034B000FEF788F9FFF728F910BD00000030014041
:1034C000FFF7C2FF5048FEF717F950490880084639
:1034D000008800F4E07008800846008880110880A9
:1034E0000846007800F0070049490870FFF784F8A3
:1034F000FFF7AAF80A20FCF7D3FF46490880FEF739
:10350000AFFCFEF77FFC4FF4E0614348FEF703F9A0
:103510001420FFF773FF4FF4E0613F48FEF7F9F81E
:103520001420FFF76BFF6EE04FF400613648FEF7A2
:10353000E7F820B939480068401C384908604FF462
:1035400080513148FEF7DCF820B935480068401C4E
:1035500033490860FDF762FA32480078012809D142
:1035600001213148FFF73CFB01212F48FFF72CFBDD
:10357000FEF768F92B48007802280CD100212A4870
:10358000FFF72EFB4FF4E0612348FEF7C2F8FFF788
:1035900033F8FFF759F82548007870B30020234925
:1035A000087023480078401C214908702148008891
:1035B000401C2049088008460088022803DB0020C0
:1035C0000880FDF707FA1A480078322815DB00203A
:1035D000174908701848008818490880FEF732FB20
:1035E00000201549088016490988C1F5805188B224
:1035F000FCF768FF143813490860FDF705F9FDF77B
:10360000FFFCFEF743FA8FE7000C01401E0000208C
:10361000B0000020B8000020000801401400002085
:103620001800002058000020002C01401C00002041
:103630009D0000209E000020A4000020A600002085
:10364000C2000020C800002010B500210A48FFF782
:10365000C7FA4FF4E0610948FEF75BF8002006491D
:1036600034310880091D0880091D0880FEF7C4FF59
:10367000FEF7EAFF10BD0000002C014000080140E9
:1036800006480078012808D105480088902804DD04
:10369000044800880A380349088070475800002011
:1036A000D00000205200002010B51048007800F033
:1036B0000200022805D00D48007800F0040004281C
:1036C00010D10B480078401C094908700846007862
:1036D00064280ADD00200870022006490870FFF700
:1036E000B3FF02E000200249087010BD92000020E4
:1036F000EB00002058000020D3010000EA01000088
:103700000102000019020000320200004B0200001A
:1037100066020000810200009D020000B902000064
:10372000D7020000F502000013030000330300007D
:10373000530300007403000095030000B70300006A
:10374000DA030000FD03000021040000460400002D
:103750006B04000090040000B6040000DC040000CC
:10376000030500002A05000051050000790500004E
:10377000A1050000C9050000F10500001A060000BF
:10378000420600006B06000094060000BC06000024
:10379000E50600000E070000360700005F07000086
:1037A00087070000AF070000D7070000FF070000F1
:1037B000260800004E080000740800009B08000066
:1037C000C1080000E70800000C09000031090000F2
:1037D00055090000790900009D090000C00900009A
:1037E000E3090000050A0000260A0000470A00005D
:1037F000680A0000880A0000A70A0000C60A000044
:10380000E40A0000020B00001F0B00003C0B00004C
:10381000580B0000730B00008E0B0000A90B00007A
:10382000C20B0000DC0B0000F50B00000D0C0000CB
:10383000250C00003C0C0000520C0000690C00003C
:103840007E0C0000930C0000A80C0000BC0C0000D3
:10385000D00C0000E30C0000F60C0000080D000086
:103860001A0D00002C0D00003D0D00004E0D000053
:103870005E0D00006E0D00007D0D00008C0D00003F
:103880009B0D0000A90D0000B70D0000C50D000044
:10389000D20D0000DF0D0000EC0D0000F80D00005F
:1038A000040E0000100E00001B0E0000260E00008B
:1038B000310E00003B0E0000460E0000500E0000CE
:1038C000590E0000630E00006C0E0000750E000023
:1038D0007E0E0000870E00008F0E0000970E000085
:1038E0009F0E0000A70E0000AE0E0000B60E0000F6
:1038F00000800088009000988013009024180098A1
:1039000000980003060205010400000503010604F7
:10391000020000003439000800000020F000000020
:1039200028010008243A0008F0000020280C0000BC
:103930004401000801000000000000000000000039
:103940000000000000000000000000000000000077
:103950000000000000000000000000000000000067
:103960000000000000000000000000000000000057
:10397000000000000A000B000C000D000E000F00FC
:1039800000000000000090010000000000000000A6
:103990000000000000000000000000000000900691
:1039A000900600000000000000030000000000007E
:1039B0008000000000000000000000000000000087
:1039C00000000000000000000000000000000000F7
:1039D00000000000000000000000000000000000E7
:1039E000000000000000E8030000000000000000EC
:1039F00000000000000000000000000000000000C7
:103A000000000000000000000000580290000000CC
:103A100000000000000000000000000000000000A6
:043A200000000000A2
:04000005080000ED02
:00000001FF
